{
    "contractName": "PetPark",
    "abi": [
        {
            "constant": false,
            "inputs": [
                {
                    "name": "_type",
                    "type": "uint256"
                },
                {
                    "name": "_count",
                    "type": "uint256"
                }
            ],
            "name": "add",
            "outputs": [],
            "payable": false,
            "stateMutability": "nonpayable",
            "type": "function"
        },
        {
            "constant": false,
            "inputs": [
                {
                    "name": "_type",
                    "type": "uint256"
                }
            ],
            "name": "giveBackAnimal",
            "outputs": [],
            "payable": false,
            "stateMutability": "nonpayable",
            "type": "function"
        },
        {
            "constant": false,
            "inputs": [
                {
                    "name": "_age",
                    "type": "uint256"
                },
                {
                    "name": "_gender",
                    "type": "uint256"
                },
                {
                    "name": "_type",
                    "type": "uint256"
                }
            ],
            "name": "borrow",
            "outputs": [],
            "payable": false,
            "stateMutability": "nonpayable",
            "type": "function"
        },
        {
            "inputs": [],
            "payable": false,
            "stateMutability": "nonpayable",
            "type": "constructor"
        },
        {
            "anonymous": false,
            "inputs": [
                {
                    "indexed": false,
                    "name": "AnimalType",
                    "type": "uint256"
                },
                {
                    "indexed": false,
                    "name": "Count",
                    "type": "uint256"
                }
            ],
            "name": "Added",
            "type": "event"
        },
        {
            "anonymous": false,
            "inputs": [
                {
                    "indexed": false,
                    "name": "AnimalType",
                    "type": "uint256"
                }
            ],
            "name": "Borrowed",
            "type": "event"
        },
        {
            "anonymous": false,
            "inputs": [
                {
                    "indexed": false,
                    "name": "AnimalType",
                    "type": "uint256"
                }
            ],
            "name": "Returned",
            "type": "event"
        }
    ],
    "bytecode": "608060405234801561001057600080fd5b5060008054600160a060020a031916331790556103ef806100326000396000f3006080604052600436106100565763ffffffff7c0100000000000000000000000000000000000000000000000000000000600035041663771602f7811461005b5780638a8de97214610078578063adf459ca14610090575b600080fd5b34801561006757600080fd5b506100766004356024356100ae565b005b34801561008457600080fd5b50610076600435610126565b34801561009c57600080fd5b506100766004356024356044356101dc565b60005473ffffffffffffffffffffffffffffffffffffffff1633146100d257600080fd5b600082815260016020908152604091829020805484019055815184815290810183905281517fd822787006f6794403d16891b4a593a2085bdc9fc3d768f12f0b13843fdaa59b929181900390910190a15050565b3360009081526002602052604090205460ff1615156101a657604080517f08c379a000000000000000000000000000000000000000000000000000000000815260206004820152601960248201527f596f75206e65656420746f20626f72726f772066697273742100000000000000604482015290519081900360640190fd5b6040805182815290517ff8c86c3655fab14dd6996efe90c18eec2193e12c9e41f83d8a7645284f12e91c9181900360200190a150565b3360009081526002602052604090205460ff161561025b57604080517f08c379a000000000000000000000000000000000000000000000000000000000815260206004820181905260248201527f596f752061726520616c726561647920626f72726f77696e6720612070657421604482015290519081900360640190fd5b600081815260016020526040812054116102fc57604080517f08c379a000000000000000000000000000000000000000000000000000000000815260206004820152602560248201527f4e6f2070657473206f66207468617420747970652061726520696e207468652060448201527f7061726b21000000000000000000000000000000000000000000000000000000606482015290519081900360840190fd5b33600090815260036020526040902054158015610329575033600090815260036020526040902060010154155b1561035d57604080518082018252848152602080820185815233600090815260039092529290209051815590516001909101555b600081815260016020818152604080842080546000190190553384526002825292839020805460ff1916909217909155815183815291517f69c0ed5a77051ba5f0c42418bb6db6d3f73884dea69811c50bf320298df6ca5c9281900390910190a15050505600a165627a7a7230582035d2c1813db57591f5419ea86651fd04505a6250994be8c920d367b18f16931c0029",
    "sourcePath": "c:/Users/nolan/DappCamp/pet-park-assignment/contracts/PetPark.sol",
    "compiler": {
        "name": "solc",
        "version": "0.4.26+commit.4563c3fc"
    },
    "functionHashes": {
        "add(uint256,uint256)": "771602f7",
        "borrow(uint256,uint256,uint256)": "adf459ca",
        "giveBackAnimal(uint256)": "8a8de972"
    },
    "gasEstimates": {
        "creation": {
            "codeDepositCost": "201400",
            "executionCost": "20537",
            "totalCost": "221937"
        },
        "external": {
            "add(uint256,uint256)": "22007",
            "borrow(uint256,uint256,uint256)": "83180",
            "giveBackAnimal(uint256)": "1517"
        },
        "internal": {
            "checkHistoricalBorrowers(address,uint256,uint256)": "infinite"
        }
    }
}